:1000000045C0000053C0000070C000004FC0000099
:100010004DC000004BC0000049C0000047C00000B8
:1000200045C0000043C0000041C000003FC00000C8
:100030003DC000003BC0000039C0000037C00000D8
:1000400035C0000033C0000031C000002FC00000E8
:100050002DC000002BC0000029C0000027C00000F8
:1000600025C0000023C0000021C000001FC0000008
:100070001DC000001BC0000019C0000017C0000018
:1000800015C0000013C0000011C0000011241FBEE5
:10009000CFEFD0E1DEBFCDBF21E0A0E0B1E001C0F5
:1000A0001D92A130B207E1F734D04CC0A9CFE1E6F0
:1000B000F0E080818D7F8083E2E6F0E080818260E5
:1000C000808387B1816487B986B1876A86B986B132
:1000D000806486B9089544B125B130E0322F2227DB
:1000E000242BFC013183208308951F920F920FB6B9
:1000F0000F9211248F939F939091000181E08927A3
:10010000809300019F918F910F900FBE0F901F90D1
:100110001895CF93DF9300D0CDB7DEB781B384605D
:1001200081BBC5DFCE010196D6DF89819A81811519
:10013000924020F482B3846082BBF4CF82B38B7F81
:0801400082BBF0CFF894FFCF61
:00000001FF
