:1000000045C0000060C000005FC000005CC0000090
:100010005AC0000058C0000056C0000054C0000084
:1000200052C0000050C000004EC000004CC0000094
:100030004AC0000048C0000046C0000044C00000A4
:1000400042C0000040C000003EC000003CC00000B4
:100050003AC0000038C0000036C0000034C00000C4
:1000600032C0000030C000002EC000002CC00000D4
:100070002AC0000028C0000026C0000024C00000E4
:1000800022C0000020C000001EC0000011241FBEBE
:10009000CFEFD0E1DEBFCDBF11E0A0E0B1E0ECEAF0
:1000A000F2E000E00BBF02C007900D92AA30B1074A
:1000B000D9F721E0AAE0B1E001C01D92AB30B20750
:1000C000E1F716D0F1C09CCF1F920F920FB60F929E
:1000D00011248F939F9390910A0181E08927809347
:1000E0000A019F918F910F900FBE0F901F9018954E
:1000F00057D07BD02FEF87EE93E021508040904087
:10010000E1F700C00000F5CFEF92FF920F931F932D
:10011000CF93DF937C0110E01EC088B38E7F88BB35
:10012000C3E0D0E012C0FE01EE0FFF1FEE0FFF1F75
:10013000EE0FFF1FE10FF11DEE0DFF1D008181E0AD
:10014000810FAED0802FACD02197DD2364F788B328
:10015000816088BB1F5F183000F3DF91CF911F9142
:100160000F91FF90EF9008950F931F93CF93DF931C
:10017000082F162F88B38E7F88BBC0E0D0E005C063
:10018000802F8ED0812F8CD02196C430D105C4F31E
:1001900088B3816088BBDF91CF911F910F91089543
:1001A000CF93DF9373D087B3816087BB88B38160BF
:1001B00088BB60E089E0D8DF61E08AE0D5DF67E0F6
:1001C0008BE0D2DF61E08CE0CFDF60E08FE0CCDF5E
:1001D000C1E0D0E004C060E08C2FC6DF2196C930BA
:1001E000D105CCF3DF91CF910895CF93DF93CDB7B5
:1001F000DEB7A0970FB6F894DEBF0FBECDBF80E08C
:1002000090E008C0E1E0F0E0EC0FFD1FE80FF91FFF
:100210001082019680329105ACF320E030E016C0E8
:100220008091000190910101820F931F803291050E
:1002300058F4F901EE5FFE4F4081E1E0F0E0EC0F91
:10024000FD1FE80FF91F40832F5F3F4F2830310516
:100250003CF3CE01019658DF80910001909101019D
:1002600001969093010180930001819734F088EF0B
:100270009FEF9093010180930001A0960FB6F89430
:10028000DEBF0FBECDBFDF91CF9108958DB18165E7
:100290008DB987B3876087BB88B3816088BB0895B9
:0C02A0008FB9779BFECF0895F894FFCF34
:0A02AC00F8FF387CFEFEFE7C2800FF
:00000001FF
