:1000000045C0000053C0000052C000004FC00000B7
:100010004DC000004BC0000049C0000047C00000B8
:1000200045C0000043C0000041C000003FC00000C8
:1000300077C000003BC0000039C0000037C000009E
:1000400035C0000033C0000031C000002FC00000E8
:100050002DC000002BC0000029C0000027C00000F8
:1000600025C0000023C0000021C000001FC0000008
:100070001DC000001BC0000019C0000017C0000018
:1000800015C0000013C0000011C0000011241FBEE5
:10009000CFEFD0E1DEBFCDBF21E0A0E0B1E001C0F5
:1000A0001D92A230B207E1F71DD054C0A9CF1F9214
:1000B0000F920FB60F9211248F939F93909100018E
:1000C00081E08927809300019F918F910F900FBE4F
:1000D0000F901F90189581B3846081BB82B38B7F92
:1000E00082BB0895F8DF0DD017D078942DD08823E7
:1000F00021F082B3846082BBF9CF82B38B7F82BB55
:10010000F5CF8EB58C608EBD8FB7F89421E13AE7BC
:100110003BBD2ABD8FBF089587B7806187BF089513
:100120001F920F920FB60F9211248F939F9390916D
:10013000010181E08927809301019F918F910F90A8
:100140000FBE0F901F9018959FB7F89480910101F2
:080150009FBF0895F894FFCF52
:00000001FF
