S018000041746D656761313238415F73747564792E7372656349
S113000045C0000053C0000052C000004FC00000B3
S11300104DC000004BC0000049C0000047C00000B4
S113002045C0000043C0000041C000003FC00000C4
S11300303DC000003BC0000039C0000037C00000D4
S113004035C0000033C0000031C000002FC00000E4
S11300502DC000002BC0000029C0000027C00000F4
S113006025C0000023C0000021C000001FC0000004
S11300701DC000001BC0000019C0000017C0000014
S113008015C0000013C0000011C0000011241FBEE1
S1130090CFEFD0E1DEBFCDBF21E0A0E0B1E001C0F1
S11300A01D92A130B207E1F716D056C0A9CF1F9216
S11300B00F920FB60F9211248F939F93909100018A
S11300C081E08927809300019F918F910F900FBE4B
S11300D00F901F9018951BD0C1E0D0E004C060E0E1
S11300E08C2F08D02196C930D105CCF360E883E089
S11300F001D0FCCFCF93C62F98B39E7F98BB28D056
S11301008C2F26D088B3816088BBCF91089516D0F8
S113011087B3816087BB88B3816088BB60E089E076
S1130120E9DF61E08AE0E6DF67E08BE0E3DF61E0DE
S11301308CE0E0DF60E08FE0DDCF08958DB1816574
S11301408DB987B3876087BB88B3816088BB089506
S10F01508FB9779BFECF0895F894FFCF81
S9030000FC
