S018000041746D656761313238415F73747564792E7372656349
S113000045C0000053C0000066C000004FC000009F
S11300104DC000004BC0000049C0000047C00000B4
S113002045C0000043C0000041C000003FC00000C4
S1130030EFC000003BC0000039C0000037C0000022
S11300407DC0000033C0000031C000002FC000009C
S11300502DC000002BC0000029C0000027C00000F4
S113006025C0000023C0000021C000001FC0000004
S11300701DC000001BC0000019C0000017C0000014
S113008015C0000013C0000011C0000011241FBEE1
S1130090CFEFD0E1DEBFCDBF21E0A0E0B1E001C0F1
S11300A01D92AA30B207E1F730D0E8C0A9CF789406
S11300B0089589B78D7F89BFEAE6F0E08081837F68
S11300C0808380818860808388B7826088BF89B795
S11300D0826089BF08951F920F920FB60F92112468
S11300E08F939F939091000181E089278093000171
S11300F09F918F910F900FBE0F901F9018959FB7EF
S1130100F894809100019FBF089581B38D7F81BBD6
S113011082B3826082BB81B3846081BB82B38B7FF4
S113012082BBC7DFC4DFEBDF882321F082B38460A6
S113013082BBF9CF82B38B7F82BBF5CF1F920F9224
S11301400FB60F9211240BB60F92CF92DF92EF925B
S1130150FF920F931F932F933F934F935F936F934C
S11301607F938F939F93AF93BF93EF93FF93C0902D
S11301700501D0900601E0900701F09008018091FC
S1130180010190910201A0910301B091040120E1C9
S1130190C20ED11CE11CF11CBC01CD0160587E4F84
S11301A08F4F9F4F28EE33E040E050E045D0890167
S11301B0330F220B330BC00ED11EE21EF31EC0926E
S11301C00501D0920601E0920701F09208016093C4
S11301D00101709302018093030190930401FF9144
S11301E0EF91BF91AF919F918F917F916F915F91AB
S11301F04F913F912F911F910F91FF90EF90DF90BE
S1130200CF900F900BBE0F900FBE0F901F901895BC
S11302101F920F920FB60F9211248F939F93909178
S1130220090181E08927809309019F918F910F90A3
S11302300FBE0F901F901895A1E21A2EAA1BBB1B8C
S1130240FD010DC0AA1FBB1FEE1FFF1FA217B3079E
S1130250E407F50720F0A21BB30BE40BF50B661FB4
S1130260771F881F991F1A9469F760957095809578
S113027090959B01AC01BD01CF010895F894FFCF87
S9030000FC
