S018000041746D656761313238415F73747564792E7372656349
S113000045C0000053C0000066C000004FC000009F
S11300104DC000004BC0000049C0000047C00000B4
S113002045C0000043C0000041C000003FC00000C4
S11300303DC000003BC0000039C0000037C00000D4
S113004035C0000033C0000031C000002FC00000E4
S11300502DC000002BC0000029C0000027C00000F4
S113006025C0000023C0000021C000001FC0000004
S11300701DC000001BC0000019C0000017C0000014
S113008015C0000013C0000011C0000011241FBEE1
S1130090CFEFD0E1DEBFCDBF21E0A0E0B1E001C0F1
S11300A01D92A130B207E1F730D048C0A9CF7894AF
S11300B0089589B78D7F89BFEAE6F0E08081837F68
S11300C0808380818860808388B7826088BF89B795
S11300D0826089BF08951F920F920FB60F92112468
S11300E08F939F939091000181E089278093000171
S11300F09F918F910F900FBE0F901F9018959FB7EF
S1130100F894809100019FBF089581B38D7F81BBD6
S113011082B3826082BB81B3846081BB82B38B7FF4
S113012082BBC7DFC4DFEBDF882321F082B38460A6
S113013082BBF9CF82B38B7F82BBF5CFF894FFCF1C
S9030000FC
