S018000041746D656761313238415F73747564792E7372656349
S113000045C0000053C0000054C000004FC00000B1
S11300104DC000004BC0000049C0000047C00000B4
S113002045C0000043C0000041C000003FC00000C4
S11300303DC000003BC0000039C0000037C00000D4
S11300407AC0000033C0000031C000002FC000009F
S11300502DC000002BC0000029C0000027C00000F4
S113006025C0000023C0000021C000001FC0000004
S11300701DC000001BC0000019C0000017C0000014
S113008015C0000013C0000011C0000011241FBEE1
S1130090CFEFD0E1DEBFCDBF21E0A0E0B1E001C0F1
S11300A01D92A930B207E1F718D013C1A9CF7894F3
S11300B008951F920F920FB60F9211248F939F935E
S11300C09091000181E08927809300019F918F9195
S11300D00F900FBE0F901F901895CF93DF9300D011
S11300E000D000D0CDB7DEB781B3826081BB82B3CC
S11300F08D7F82BBDCDF14D010E064EF71E0CE01B1
S1130100019689D0882311F081E01827112321F06A
S113011082B3826082BBF1CF82B38D7F82BBEDCF8D
S113012083B7877B83BF83B7836083BF87B78160CF
S113013087BF789408951F920F920FB60F921124DF
S11301400BB60F92CF92DF92EF92FF920F931F9311
S11301502F933F934F935F936F937F938F939F93CB
S1130160AF93BF93EF93FF93C0900501D090060126
S1130170E0900701F0900801809101019091020143
S1130180A0910301B0910401BC01CD017E5F8F4FAA
S11301909F4F28EE33E040E050E079D08901330FDF
S11301A0220B330BC00ED11EE21EF31EC0920501BA
S11301B0D0920601E0920701F092080160930101D8
S11301C0709302018093030190930401FF91EF91D6
S11301D0BF91AF919F918F917F916F915F914F915B
S11301E03F912F911F910F91FF90EF90DF90CF904F
S11301F00F900BBE0F900FBE0F901F9018952FB746
S1130200F894609105017091060180910701909125
S113021008012FBF0895CF92DF92EF92FF920F93C0
S11302201F93CF93DF93EC018B01E9DF28813981A0
S1130230232B51F46A837B838C839D8381E090E03C
S11302409983888380E01AC0CA80DB80EC80FD80BB
S11302509B01AC012C193D094E095F0969017A0122
S113026020E030E0C016D106E206F30630F06A83DF
S11302707B838C839D8381E001C080E0DF91CF91FB
S11302801F910F91FF90EF90DF90CF900895A1E21E
S11302901A2EAA1BBB1BFD010DC0AA1FBB1FEE1FFC
S11302A0FF1FA217B307E407F50720F0A21BB30B47
S11302B0E40BF50B661F771F881F991F1A9469F7C3
S11302C060957095809590959B01AC01BD01CF011F
S10902D00895F894FFCF2D
S9030000FC
